:020000040000fa
:080000000004040000000000f0
:020000040000fa
:10080000cf8a21000eff21000e01880000000000a9
:10081000000020000000e000020032000001200083
:100820002002880014000700740007000000e000a8
:1008300003003a00c05124000100200002003700ec
:100840000000200001002000810f70000100320034
:100850000f000700000020000000e000020032004e
:1008600000000200000000002e0f02000000000047
:100870000040da000000fe00c00820000000e00098
:1008800002003200002020009001880000000600d5
:10089000a1028800800478000000eb001f003700f0
:1008a000e284440054a0b4009905ba00e2844400f4
:1008b00054a0b4009906ba00e284440054a0b400e5
:1008c0000006eb00476fde00fd07b200ae018800b6
:1008d000636ce10003003a000ad801000000eb005d
:1008e0000e003700606ce10008003a00004deb009c
:1008f0000a05e800020039003420ec000af0a000ec
:100900008b05e900f9ff3e00040037006168e10053
:10091000010032000086eb000b00070019c7ba0087
:100920000e04e0001905ba0003003a000a00e000d6
:10093000dbff3a0000000600fe07b200ae028800ae
:100940008a047800f5ff37000cd0a300e20f4d00b9
:100950001c003b0089027800354dba000a05e8000a
:10096000020039003420ec000af0a0008b05e900f9
:100970000f003200254dba000a05e80002003900d8
:100980003420ec000af0a0008b05e90008003200da
:100990000c00e0000600320015cdba000a05e800a0
:1009a000020039003420ec000af0a0008b05e900b9
:1009b0008984e80054a0b4000b00e000e2ff3a0094
:1009c000000006009902ba00055d78008b05e90079
:1009d000f7ff3200c82ade00055d78008b05e900cc
:1009e000f3ff32000c00e000f1ff320019ddba0025
:1009f000eeff37000040da000000fe0000000500b6
:020000040000fa
:04afe000deff000090
:020000040000fa
:04afe400f000000079
:020000040000fa
:04afe8007fff0000e7
:020000040000fa
:04afec00dbff000087
:020000040000fa
:04aff00039ff000025
:020000040000fa
:04aff400ffffff005c
:020000040000fa
:10000800fa040000fa040000fa040000fa040000f0
:10001800fa040000fa040000fa040000fa040000e0
:10002800fa040000fa040000fa040000fa040000d0
:10003800fa040000fa040000fa0400000046000078
:10004800fa040000fa040000fa04000080450000e9
:100058000045000000470000fa040000fa04000010
:10006800fa040000fa040000fa040000fa04000090
:10007800fa040000fa040000fa040000fa04000080
:10008800fa040000fa040000fa040000fa04000070
:10009800fa040000fa040000004400008044000054
:1000a800fa040000fa040000fa040000fa04000050
:1000b800fa040000fa040000fa040000fa04000040
:1000c800fa040000fa040000fa040000fa04000030
:1000d800fa040000fa040000fa040000fa04000020
:1000e800fa040000fa040000fa040000fa04000010
:1000f800fa040000fa040000fa040000fa04000000
:10010800fa040000fa040000fa040000fa040000ef
:10011800fa040000fa040000fa040000fa040000df
:10012800fa040000fa040000fa040000fa040000cf
:10013800fa040000fa040000fa040000fa040000bf
:10014800fa040000fa040000fa040000fa040000af
:10015800fa040000fa040000fa040000fa0400009f
:10016800fa040000fa040000fa040000fa0400008f
:10017800fa040000fa040000fa040000fa0400007f
:10018800fa040000fa040000fa040000fa0400006f
:10019800fa040000fa040000fa040000fa0400005f
:1001a800fa040000fa040000fa040000fa0400004f
:1001b800fa040000fa040000fa040000fa0400003f
:1001c800fa040000fa040000fa040000fa0400002f
:1001d800fa040000fa040000fa040000fa0400001f
:1001e800fa040000fa040000fa040000fa0400000f
:1001f800fa040000fa040000fa040000fa040000ff
:10020800fa040000fa040000fa040000fa040000ee
:10021800fa040000fa040000fa040000fa040000de
:10022800fa040000fa040000fa040000fa040000ce
:10023800fa040000fa040000fa040000fa040000be
:10024800fa040000fa040000fa040000fa040000ae
:10025800fa040000fa040000fa040000fa0400009e
:10026800fa040000fa040000fa040000fa0400008e
:0c027800fa040000fa040000fa04000080
:020000040000fa
:108c0000809fbe000000fa00d18a800080382100d9
:108c1000808f500003003a00b08a80000000e80016
:108c2000b08a8800408180000000e000030032002c
:108c3000408180000000e900408188009180800030
:108c4000e0808000808f500035003a00a1808000d5
:108c5000f0808000808f50001c003a00b1808000be
:108c600000818000808f500003003a0030c0b300c4
:108c700076f5b7003e003700b180800000818000ab
:108c8000808f500004003d00b08080000000e800ac
:108c9000b080880003003700b08080000000e90049
:108ca000b080880030818000e10f500005003a005c
:108cb000b180800020ce200001005000306188008b
:108cc0002b003700262cef0029003700a180800000
:108cd000f0808000808f500004003d00a080800064
:108ce0000000e800a080880003003700a08080001a
:108cf0000000e900a080880020818000e10f500082
:108d000005003a00a180800020ce20000100500024
:108d10003062880016003700462cef001400370040
:108d200091808000e0808000808f500004003d0032
:108d3000908080000000e8009080880003003700e9
:108d4000908080000000e900908088001081800001
:108d5000e10f500005003a009180800020ce2000f5
:108d6000010050003063880001003700662cef00de
:108d700000e8a9000080fa004f00be000040060095
:020000040000fa
:108e00003600f800809fbe00829fbe00849fbe0097
:108e1000869fbe000000fa00008080000000e00095
:108e200003003200008080000000e900008088001c
:108e3000908280000000e0000300320090828000f9
:108e40000000e900908288005dea07000108a9009f
:108e500001a8a9000080fa004f03be004f02be0027
:108e60004f01be004f00be003600f9000040060072
:020000040000fa
:108b00003600f800809fbe00829fbe00849fbe009a
:108b1000869fbe000000fa0005d0bf000004e00000
:108b200003003a00a5e707000168a900010037002b
:108b300060ed07000080fa004f03be004f02be0048
:108b40004f01be004f00be003600f9000040060095
:020000040000fa
:108800003600f800809fbe00829fbe00849fbe009d
:10881000869fbe000000fa0005d0bf000004e00003
:1088200003003a0065e8070003c8a900010037000b
:108830009fee07000080fa004f03be004f02be000b
:108840004f01be004f00be003600f9000040060098
:020000040000fa
:108a00003600f800809fbe00829fbe00849fbe009b
:108a1000869fbe000000fa00dced07000080fa002f
:108a20004f03be004f02be004f01be004f00be000c
:088a30003600f90000400600c9
:020000040000fa
:108900003600f800809fbe00829fbe00849fbe009c
:10891000869fbe000000fa009aee07000080fa0071
:108920004f03be004f02be004f01be004f00be000d
:088930003600f90000400600ca
:020000040000fa
:100a000080d50000430200004d5000004333000039
:100a1000323000000000000010000000070000005d
:100a200001000000332000005061000064640000f9
:100a30006c650000204d00006f7400006f720000b4
:100a40006973000065640000205000006f6c0000b6
:100a500061720000697a00006572000020430000a6
:100a60006f6e0000747200006f6c00006c65000017
:100a70007200000000000000000000000000000004
:100a80000000000000000000000000000000000066
:100a90000000000000000000000000000100000055
:100aa0000000000002000000332000005061000040
:100ab000646400006c650000204d00006f7400004d
:100ac0006f72000069730000656400002050000030
:100ad0006f6c000061720000697a000065720000ae
:100ae000204300006f6e0000747200006f6c000005
:100af0006c650000720000000000000000000000b3
:100b000000000000000000000000000000000000e5
:080b10000000000000000000dd
:020000040000fa
:100b18000000fa004b0e07000000280071002000ba
:100b280000608800005825001160880011672000c7
:100b3800206088001067200031628800908088005b
:100b4800316280009080800031618800a080880038
:100b580033618000a2808000106720002630ef00fb
:100b68000081880031818000008180002181880017
:100b7800f080880020818000f18080003363880045
:100b8800b2808800e180880010818800113a8000d6
:100b980000022000008060000000e000fbff32003f
:100ba800148ea90010708000620060000000e00050
:100bb80006003a000570ef00701c2000240d0700a5
:100bc800701c2000a10d07000800370010c0b300fa
:100bd80005f0b700500220001d0d0700500220004c
:100be8009a0d07002188a80023e8a800044ea80051
:100bf800151f07000080fa00000006000400fa0034
:100c08005420ef000000eb00100fba000000eb00ca
:100c18009081ba000e81e8000e80e8009e007800fe
:100c2800030878006108b800120178008001eb0021
:100c3800c011dd00020020000000710081807100f9
:100c48000080fa00000006007000fa00889fbe00cd
:100c58008a9fbe008c1f7800444c2100f00047009a
:100c680070004700f00147006e0147001404780047
:100c7800844c210014427800063c2100e40247001d
:100c8800e7422100860a7800e6024700c64a2100aa
:100c9800870a7800e8024700470f2100860a780093
:100ca8006a034700ec024700070b7800880a7800bf
:100cb800844278006e0247000574a100760347005d
:100cc800054a7800f002470076024700860a780055
:100cd8006602420011037800f2004700a54c21008b
:100ce8008408780074024700e3004300050a78008e
:100cf8000042eb0015c0b300844878008040eb0048
:100d0800100278000e80e80064024200054a78006c
:100d18001302780092417800650142000349780087
:100d280001487800c6d4bf000000fb00e20f500065
:100d380007003200e40f500008003200e10f5000b5
:100d480009003a0010c8b300e6f0b7000700370002
:100d580020c8b300e6f0b7000400370030c8b3007d
:100d6800e6f0b70001003700e670ef006c004700be
:100d78001141200010007800810f50003901320025
:100d880011412000810f500021003e00f50f500056
:100d9800a4023200f50f50000c003e00f10f500085
:100da800af003200f10f500003003e00e50f500085
:100db80042003200c8023700f20f5000aa00320089
:100dc800f40f50008c023200c302370011212000ba
:100dd800810f5000cf00320011212000810f5000f8
:100de80004003e0001212000810f5000a0003200c5
:100df800b902370031222000810f500095003200df
:100e080001412000810f500001013200b202370079
:100e180001492000810f50004001320001492000a3
:100e2800810f500011003e0031452000810f500015
:100e38005d01320031452000810f500004003e0062
:100e480031442000810f500044013200a2023700d3
:100e580051462000810f50007f013200a14620003a
:100e6800810f5000a00132009b023700015320007f
:100e7800810f5000db01320001532000810f500028
:100e880007003e0021492000810f50002d0132004b
:100e9800914b2000810f5000d00132008e023700a4
:100ea80011532000810f5000fc01320061682000be
:100eb800810f500039023200870237007001470065
:100ec80070004700f000470012017800630020001e
:100ed80044c5b30003097800700147009001780009
:100ee800720047008381e800f205470084497800d2
:100ef8007205470091007800f2044700e480400042
:100f0800720447009201780011417800e4804100a2
:100f18000274a00006582d0037242000824878006b
:100f2800d404250035342300100078002203230060
:100f380003002000290009000018eb004005b1005b
:100f4800640640000688be00e8004000048ebe002b
:100f5800040120008288be00ec00400072002000de
:100f68001300200084087800ee00400014002000e0
:100f78008288be00e10420008080400072014000a9
:100f88004355280027000900335978002300200022
:100f980000037800a603b00007000900001beb005f
:100fa8002005b0008408780022c3b3000308780045
:100fb80021c3b3001b00780072004000024878008b
:100fc8001a007800670040000148780000a48000fb
:100fd80011a48000190178000089be001802780069
:100fe80040878000e30f500002003a0020002000f4
:100ff8000100370010002000f2004700f20147000e
:1010080072014700e404b000476a2000000a780033
:10101800a65520001100780025002000a004b0008b
:1010280011c0b300070878000e80e800930178002b
:1010380024002000c304b00086097800120178005b
:101048002205b00005097800014878005487880017
:1010580026023700004021007080880023023700f4
:101068000f11a800210237000f11a9001f02370035
:10107800610e210091407800c7d4bf0067c16000ad
:101088008000fb00f00f200082447800680e2100e9
:10109800094c780000806000e10f500012023a000d
:1010a800c6d4bf000000fb0061006000004078006b
:1010b8000004e000030032001000200010818800c6
:1010c800010037002230ef00c6d4bf000000fb004b
:1010d800620060000000e000030032001000200001
:1010e80020818800010037002430ef00c6d4bf00fb
:1010f8000000fb00640060000000e0000300320014
:101108001000200030818800f80137002630ef00f9
:10111800f6013700700047002121200010007800f8
:1011280001087800e6d0bf0067406000e6f0b7002d
:10113800e6d0bf00e34f5000ec013c00e6d0bf0012
:10114800210221000000fb000000e900000040002f
:1011580001004000100078000000e00012003a0092
:101168006a004700f001470010007800ea004700d5
:101178007a01400093017800120178007a0040005b
:101188000290a1000208780011007800fa004000df
:101198006380410091007800c908de00e1c060006a
:1011a80001487800110037006a004700f001470045
:1011b80010007800ea0047007a01400093017800a7
:1011c800120178007a0040000290a000020878001e
:1011d80011007800fa004000638041009100780017
:1011e800c908de00e1c060000148780070004700cf
:1011f80013c0b3001000780011c0b3000081e800ec
:101208000e80e8000349780001487800b7013700ec
:1012180074004700610e21009140780010007800aa
:101228000080e800e7c06000220121000142780048
:10123800630e210084497800900090001000780027
:10124800630e210093417800800078000300fb00c2
:101258000000e9000000400002004000010878009a
:10126800a2013700f00147007001470070004700f5
:10127800610e21009140780013027800e7c06000f9
:101288002541200001447800660e2100084b7800b3
:1012980063c0b300050a7800f00047001201780027
:1012a8000281e800034978001000780064004000db
:1012b8001101780090407800640041000174a0009a
:1012c800f201470001487800f2004700e6d0bf006d
:1012d800220121000000fb000000e900000040009e
:1012e80002004000624c210012417800130278008d
:1012f8000201fb0013c0b300020a78000e81e80067
:1013080091007800100078000182e800cf80de00ac
:10131800008abe000349780074013700c6d4bf00b4
:10132800e6f0b700e6d0bf0067406000e6f0b7001f
:10133800e6d0bf0080407800104920007601070001
:101348006a0137006a0047008000eb00100078004f
:101358000002b0000108780064013700610e210026
:1013680091407800c6d4bf00e7c060000141780012
:10137800690e2100824c780067406000e108070090
:10138800c6d4bf00e6f0b700e6d0bf0067406000f3
:10139800e6f0b700e6d0bf00804078001049200092
:1013a8005d01070051013700740047001000780004
:1013b8001000780000407800e6f0b700e6d0bf00e3
:1013c800e14f500008003a00740047001000780010
:1013d8000080e8009000900010007800000078007d
:1013e800403cb000e0808800e6d0bf00e24f5000eb
:1013f80008003a0074004700100078000080e800f8
:10140800900090001000780000007800403cb00088
:10141800f0808800e6d0bf00e44f500008003a0092
:1014280074004700100078000080e80090009000e9
:101438001000780000007800403cb000008188006f
:10144800e6d0bf0080407800104920003201070034
:10145800e670ef0025013700610e21009140780009
:10146800c6d4bf00e7c060000000fb00014278005e
:10147800630e210084497800610060000040780014
:101488000004e00003003200908080003070ef001c
:10149800e0808800c6d4bf000000fb006200600046
:1014a8000000e00003003200a08080003170ef00ef
:1014b800f0808800c6d4bf000000fb006400600014
:1014c8000000e00003003200b08080003270ef00be
:1014d80000818800c6d4bf0085f5b70030582100c8
:1014e800620c070001013700610e2100914078006d
:1014f800c7d4bf0067c160008000fb00f00f200068
:1015080002447800660e2100084b780000806000d5
:10151800e10f500014003a00610e2100914078005c
:10152800e6d0bf008100fb000000fb008100e9005d
:101538000000e900818140000001400021012100f4
:101548006003210081804100000041009100780083
:1015580010017800e6d0bf00828040000040e9001a
:101568003608070013003700610e2100914078000b
:10157800e6d0bf008100fb000000fb008100e9000d
:101588000000e900818140000001400021012100a4
:101598006003210081804100000041009100780033
:1015a80010017800e6d0bf00828050000040e900ba
:1015b80022080700c6d4bf00e6f0b700e6d0bf0097
:1015c80067406000e6f0b700e6d0bf0080407800d2
:1015d80010492000d0000700c40037008b0907001d
:1015e800c200370074014700f40047007402470046
:1015f800f401470074004700120178009100780058
:10160800640141008180e8001402780093017800a9
:10161800e60242006882410010007800ea014000ba
:10162800e6d0bf0077088000674360007066260038
:1016380006447800690e2100884c7800ea3bb9001e
:1016480012017800a28188009100780001017800d9
:101658000090b9004f91de004288de000200500081
:101668000040780071f5b70071d5bf000080fb001d
:1016780080047800110009000983d80060088800f8
:1016880015007800b081880014007800c0818800b7
:1016980013007800d081880094003700f0014700db
:1016a8007001470070004700610e210091407800ea
:1016b80013027800e7c0600025532000014378003a
:1016c800630e210086497800c3c0b300050a78007c
:1016d800f000470012017800720347000281e80019
:1016e800f203470003497800f2024700100078002f
:1016f8007202470064004000f2014700720147008f
:101708001040780091007800004478000874a00028
:101718006480400011c0b300084878000e80e800db
:10172800684c210018447800960478001657210068
:10173800164378000804fb000683fb00880c780039
:10174800ea33b90017047800860378000883e800b4
:10175800070b780095027800a6818000e482420099
:10176800860a780014027800b5818000660242007b
:10177800050a780093017800c4818000e88141005f
:101788008409780012017800d38180006a01410041
:101798000309780001487800540037007108800078
:1017a80010c0b300ea0cb9008800780071f5b700e2
:1017b8000210200071d5bf00d28188000080fb0094
:1017c800d281800080047800110009008980d80047
:1017d800c281880000017800c3818000413c20005c
:1017e80010c0b30062088800b3818800a181880016
:1017f800d4f0b7003d0037007400470010007800af
:10180800900090001000780000a4880011a48800bf
:1018180000a4800011a48000208288003182880002
:1018280032003700f00047007001470070004700a1
:10183800910078006301200084c2b3008308780017
:10184800f000470092017800720147008381e800a8
:101858008449780010007800640040009101780005
:1018680090407800648041000174a00013002000bb
:1018780001487800030f78002082800031828000c0
:101888001201780000a4880011a4880000a4800038
:1018980011a480000089be000800370072004700cc
:1018a8009e007800900178004209dd006000b800d1
:1018b800028141000089be001e0fe8001e0078006a
:1018c800e90f5000f5ff360011c0b3000e80e800a4
:1018d80001487800050037008040eb000e80e800e2
:1018e8000148780001003700000037000e80e8004a
:1018f800104078000004e000020032007600470043
:101908005a0b07004f0678004f05be004f04be0073
:101918000080fa00000006001c00fa00881f78000a
:1019280078034700f80247007a0247008e81e800f2
:101938007a01470078044700fa034700000c780052
:10194800814b780011c9b300e4034700090009007e
:10195800801beb00640047001604780001487800fb
:10196800950378009440780045c0b30065004700af
:10197800e4c0b300054878006600470015c8b30006
:10198800044878006800470014c2b300054878008e
:1019980069004700460f21000448780004c5b300d9
:1019a80069004700884278000448780064024700cc
:1019b8004838de00054a7800804278006502470012
:1019c80064004700054a7800660240000e80e8007f
:1019d8008180fb0004087800060f78001300780067
:1019e8000108780012407800e24f500009003600e4
:1019f8000e80e800b280800090007800c0c32f00fd
:101a0800020040000181e800cf80de000089be00ae
:101a18000e0037007a0047002201210010407800ac
:101a28008e80e8000080fb000000e9000000400014
:101a38000200400091007800100078000181e80061
:101a4800403cb100cf80de000089be008e81e800f6
:101a58008e80e8007a004700125721001241780072
:101a6800930178000282fb00668141008001eb004f
:101a78000409780091007800e88040008308780025
:101a880010407800120007000e82e8000001be0036
:101a98009400780064004700ea8040008288be0015
:101aa800f20a07001e0078000002b0001e0178004c
:101ab8009000780000022000020040008100e80049
:101ac800010878004f0478000080fa000000060042
:101ad8000600fa00e4004700640247006011b800fd
:101ae800004a7800028fbe0011407800e24f500093
:101af80023003e00640047002102210010407800c6
:101b08000080fb000000e9000000400001004000e8
:101b180010007800e10f500004003a001e00780021
:101b28009e00900001f0a000008fbe00e400470076
:101b380000032100914078008180fb008100e900ca
:101b48000080400010407800e14f500001003a004a
:101b58001e90a000e4004700000321009140780097
:101b68008180fb008100e90000804000104078007f
:101b7800e24f500011003a001ea0a0000f003700ed
:101b880030818000e10f500004003a001e00780008
:101b98009e00900001f0a000008fbe0032d0bf0070
:101ba800e14f500001003a001e90a00032d0bf0063
:101bb800e24f500001003a001ea0a0006400470058
:101bc80010407800e24f500027003e0064004700b4
:101bd8006401470010407800210121000080fb00cb
:101be800124178000000e9008281fb0000014000fa
:101bf8000300e9008100410000014000c00121000c
:101c0800000041009100780010007800808f50009b
:101c1800010034001e40a000640047006401470032
:101c280010407800210121000080fb00124178005b
:101c38000000e9008281fb00000140000300e90088
:101c48008100410000014000c00121000000410066
:101c58009100780010007800808f50000c003d0043
:101c68001e50a0000a003700b1808000008180006b
:101c7800808f5000010034001e40a000b180800019
:101c880000818000808f500001003d001e50a000a0
:101c98001e0078009e0090000080fa0000000600f8
:101ca8006600fa00889fbe008a9fbe0023062000b7
:101cb8008e814100050620008e8242002406200005
:101cc8000e024200800a7800010a780040062000cf
:101cd8000e00400051ac8000020878001300780024
:101ce800810f5000570032008e83e8008e82e80092
:101cf8000e84e8000e83e8000e82e800e401470045
:101d0800020620000e014100e400470020062000e2
:101d18000e004000e60547000e85e800e60447008f
:101d28000b0d7800e685440097047800e40347002b
:101d38001a0820008b0b78004bc4b3008a0c78007b
:101d48008044eb009502780017c8b3000585e800c9
:101d580015c2b3000b4d78000005eb00180478009d
:101d680063044400094c78001603780064034300b8
:101d7800074b78001402780065024200054a780093
:101d880093017800120178008209780091007800a8
:101d9800100178000180e800020878000a0f780036
:101da800410620008e804000640047001101780041
:101db800410620008e804000924178001001780092
:101dc800400620000e0040001e0141006401410051
:101dd8000349780091007800100078001e0fe80091
:101de8000001e80011407800410620008e80400084
:101df8000080fb00820878000000ea004f00de0047
:101e0800004078000004e000e5ff3a0021062000c9
:101e18008e8040000000280091007800808f5000dc
:101e2800030032000e80e800100078000f0a070057
:101e3800200620000e0040009000780051ac880079
:101e4800000037004f05be004f04be000080fa00b6
:101e5800000006000000fa00881f78002cfb07002d
:101e68003270ef002a30ef0032d0bf00518180007d
:101e780031f0b7006181880031d0bf0061818000f6
:101e8800148ea90030f0b70071818800fc060700a5
:101e98002082800031828000420d210012417800aa
:101ea80000a4880011a48800e14f410018003a00fe
:101eb80000c3b300148ea800d4f0b700d4d0bf007c
:101ec80009f0b70040062000cd050700148ea900d0
:101ed800433c20009001200012c0b300d08188004c
:101ee80000582d0031242000d4818000a38188006f
:101ef800c481880002427800135721008449780081
:101f0800c281800000a4880011a48800b2818800e2
:101f18007108800071d5bf00ea09b9008200780015
:101f28000080fb0012672000800178001100090082
:101f38008380d800028188000181800060088800c1
:101f4800f180880005d0bf00f1808000e180880022
:101f58000004e00010003a001000200015cea80090
:101f680010818800401f2000a505070010002000f0
:101f7800158ea80020818800401f2000a0050700ba
:101f880010002000154ea80030818800401f200056
:101f98009b0507000000370005d0bf000004e000e3
:101fa800e8013a00d5d0bf00e14f500044023a00a2
:101fb80080828000f1862600810f50006201320085
:101fc800f1862600810f50002a003e00315326007a
:101fd800810f500013003e0011532600810f50005e
:101fe800bd00310011362600810f50000d0132006e
:101ff80011362600810f500005003e00f1ec290043
:1020080001004000e20f5000c8013e007400370094
:10201800f1bc290001004000e20f5000c3013e005e
:10202800bd003700f1762600810f500034013200e0
:10203800f1762600810f500007003e001176260039
:10204800810f5000f5003200a1762600810f500064
:10205800ae013200b501370031772600810f5000fc
:10206800ea00320061772600810f500093013200a8
:10207800ae01370031232700810f500012003e00c7
:1020880011232700810f50002600310061e7260048
:10209800810f50004e01320061e72600810f500089
:1020a80004003e00e1962600810f5000d000320067
:1020b8009e013700f1fc280001004000e20f5000ab
:1020c8009a013e00a4003700f1362700810f500026
:1020d80014013200f1362700810f500007003e003e
:1020e80051262700810f5000c3003200a136270077
:1020f800810f5000790132008c01370041472700d9
:10210800810f50004001320031572700810f5000e5
:102118003801320061372700810f50004301320037
:102128008201370080828000210121000000e9003f
:102138006300600080828800808280000000400088
:1021480081004000808280001101780080004000fa
:1021580002047800200221001200200000804000c4
:102168000208780040052100900407008282800060
:1021780080004400024078003005070000407800e5
:1021880004f0b70004d0bf000004e00003003200f0
:1021980004d0bf0006030700680137008082800072
:1021a80021012100000040000100400081828000e0
:1021b8001000780081407800403cb10014c3b3009f
:1021c80084c24000cf80de000042eb000001be0068
:1021d8008540780000c5b300a10207005701370009
:1021e800808280000000e90063006000808288002f
:1021f800400521006d040700e10f400010003a007f
:1022080080828000818280000001400001407800c7
:10221800210221001043b000810041000001eb00c1
:102228000042eb0082087800f2ff2f000300200034
:102238008040780000c5b300890207003f013700dd
:10224800808280002102210000004000120020004e
:1022580001004000020878004005210053040700ef
:1022680082828000413c200080804000024078004b
:10227800f20407000040780004f0b70004d0bf0063
:102288000004e0000300320004d0bf00c8020700c9
:102298002a013700808280002101210000004000cf
:1022a80001004000818280001000780081407800a1
:1022b800403cb10012c3b30082c24000cf80de00b0
:1022c8000042eb000001be008540780000c5b30065
:1022d8006302070019013700808280002202210072
:1022e8000000e90013002000630060000470ef00a4
:1022f800808288004100210091407800808280001f
:102308000000400002004000030878000140780007
:10231800a7020700090137008082800022022100fd
:102328000000e9008001eb00630060000470ef002a
:1023380080828800410021009140780080828000de
:1023480000004000020040000308780001407800c7
:1023580097020700f90037008082800021022100df
:102368000000e900630060008082880080828000ad
:102378000000400001004000100078000000e0006c
:102388000a003a0080828000004078001043b000c4
:102398000042eb00f2ff2f0003002000804078008d
:1023a80000c5b3002e020700e400370080828000d9
:1023b80021012100000040000100400081828000ce
:1023c8001000780081407800403cb10013c3b3008e
:1023d80083c24000cf80de000042eb000001be0057
:1023e8008540780000c5b3001d020700d300370000
:1023f80052020700d10037000040eb006c020700d2
:10240800b104070078190700cc00370004d0bf00da
:10241800670207000470ef00c800370020c0b3004f
:1024280008f0b700420521001241780011c0b3003e
:1024380090c3b300804f5100010036008040eb008c
:10244800430521009341780010c0b300f2c2b300e5
:1024580082cf510001003e000040eb0000c0600048
:102468000004e00008003200410521009140780096
:1024780004d0bf0001417800440d2100024a7800d1
:102488004b020700ad0037004205210012417800d9
:1024980011c0b30060c4b300804f51000100360082
:1024a8008040eb00430521009341780010c0b30041
:1024b80002c4b30082cf510001003e000040eb008f
:1024c80000c060000004e00008003200410521005f
:1024d8009140780004d0bf0001427800430d2100ec
:1024e80084497800320207009400370040c0b300e6
:1024f80004f0b70004d0bf002d0207008f0037009a
:10250800a0818000403cb1008000eb0014c0b30003
:102518000001be00f1c4b30080c4b300d0010700bd
:102528008600370040052100930207000470ef0081
:102538008000780004d0bf00413cb000a181880031
:102548001b0207007d00370054d0bf0067406000c1
:102558006c0407000040780004f0b70004d0bf0006
:102568000004e0000300320004d0bf00100207009e
:1025780072003700a0808000403cb1006101b900c2
:1025880000c5b3000042eb0011c3b300b40107005b
:10259800b0808000403cb1006101b90000c5b300c3
:1025a8000042eb0021c3b300ad010700c0808000ea
:1025b800403cb100cf80de000042eb000001be00cd
:1025c80031c3b30000c5b300a50107005b003700a5
:1025d8006005210068020700208288003182880097
:1025e8008a0507000470ef0004d0bf00f00107005f
:1025f800520037000470ef0004d0bf00ec01070060
:10260800820507004d003700308080008000eb0015
:1026180014c0b3000001be0041c5b30040c5b300fb
:102628008f0107000630ef00440037004005210005
:10263800af030700d1cc2c000080fb000100b800dc
:102648004308de000040780071f5b70071d5bf007f
:10265800ea4f500003003e0071d5bf000004e000bf
:1026680009003a0011c0b300c0c0b300814178002e
:10267800125721000349780004f0b70004d0bf00c6
:10268800cb010700030037000470ef0004d0bf003f
:10269800c70107007108800071d5bf00ea0ab900b8
:1026a800840078000080fb00000178001100090018
:1026b8008280d800600888002000370071d5bf00ec
:1026c800ea00b900004078000041780061c5b30015
:1026d80070c4b300830107001800370040052100cb
:1026e800250207000470ef008000780004d0bf00c6
:1026f800d1818800d1818000c1818800c18180009a
:10270800b1818800aa0107000c003700b081800061
:102718008000eb0014c0b3000001be00a1c4b300e8
:1027280070c4b3004e0107000400370030c0b30086
:1027380004f0b70004d0bf009d010700d570ef007a
:102748005f0037009b07070044d5bf000004e00086
:10275800030032003cf907004475ef0058003700c9
:102768008180800000032100008040001040780034
:10277800e14f50001f003a008080800021012100b5
:102788000000400001004000a28180009000780015
:10279800403c200002004000808f500041003a0079
:1027a800828080000003210021c0b30000004100a6
:1027b8005287800001487800e20f510039003a0042
:1027c8008080800081808000004078000040e80020
:1027d80079f5b700e28f500003003a0079d5bf00c1
:1027e8000040e80079f5b700705721009f070700ff
:1027f8002c0037008080800021012100000140006a
:10280800808080008100410000014000c00121005b
:10281800000041009100780010007800808f50007f
:1028280006003200828080008001210011c0b300c0
:1028380000004100014878001a00370081808000bc
:10284800800121000080400010407800e14f5000d6
:1028580014003a0050878000e20f500011003a003f
:1028680082808000800121008040eb000000410050
:1028780082808000014878000240780081808000d2
:102888000040e8007ff5b700e28f500003003a00ef
:102898007fd5bf000040e8007ff5b700d057210082
:1028a80072070700808080000000e80080808800b0
:1028b80080808000e20f5000010034001030ef00eb
:1028c800508180000000e0000b003a001081800079
:1028d800e10f500008003a00408180000000e0004d
:1028e80005003a00410620001000200041818800c0
:1028f800154ea80050818800108180000000e0007b
:1029080002003a00154ea9002a30ef0060818000cd
:102918000000e0000b003a0020818000e10f500029
:1029280008003a00408180000000e00005003a00fd
:10293800410620001000200041818800158ea80063
:1029480060818800208180000000e00002003a00d9
:10295800158ea9002c30ef00708180000000e00087
:102968000b003a0030818000e10f500008003a0067
:10297800408180000000e00005003a004106200088
:10298800100020004181880015cea80070818800c1
:10299800308180000000e0007ffd3a0015cea900dc
:1029a8002e30ef007cfd37000000fa000080fa00ae
:1029b800000006000000fa003011800091828000bb
:1029c800004078000cf0b7000100e00001003a0078
:1029d8004a70ef000cd0bf00ed4f500001003a00e4
:1029e8004a70ef00017d2000d5d0bf009182880099
:1029f800e24f500002003a004a70ef00960037009c
:102a08004ad0bf000080fb00e10f500015003200e3
:102a1800e10f500003003c000000e0000600320017
:102a28008b003700e20f500028003200e30f5000ff
:102a380068003200860037004c70ef00c1002100aa
:102a480091407800d4d0bf0080cf500003003a00f6
:102a580010c0b3004af0b7007f0037004a70ef009b
:102a68007d003700c10021009140780000c6b30006
:102a780080cf500013003600c1002100914078003b
:102a8800a0c7b30080cf50000e003e0022c0b300a4
:102a98000cd0bf00c1002100914078000080fb00ed
:102aa80002427800a3042100844978004800dd0030
:102ab80081417800b20421000349780080828800af
:102ac800650037004a70ef0063003700c10021003d
:102ad8009140780000c3b30080cf50003b0036001f
:102ae800c100210091407800a0c7b30080cf5000fa
:102af80036003e00a671ef001e003700611a210063
:102b080091407800a05421008180fb008080400023
:102b18004bd0bf009140780080cf500012003a009f
:102b2800611a210091407800a05421008180fb00a7
:102b38008100e800808040000cd0bf009140780000
:102b480080cf500008003a00611a210091407800b7
:102b5800a05421008180fb008180e80000804000b3
:102b6800104078004cf0b700a6d1bf006340400089
:102b7800a6f1b700611a21009140780060c2b30045
:102b880080cf5000ddff360082828000c100210026
:102b9800914078004cd0bf008180fb00810071001b
:102ba800818288000004e00004003a0010c0b300ed
:102bb8004a70ef00d5f0b7000300370030c0b3000b
:102bc8004e70ef004af0b700230037004a70ef005c
:102bd800210037004ed0bf000004e0001a00350085
:102be8004ed0bf00e2042100124178008081fb0032
:102bf800c100210091407800400521000241e80011
:102c08000080410082417800e4042100034a7800f2
:102c180001487800e1042100914078004cd0bf00c1
:102c280080cf50000c003a0011c0b3004cd0bf0058
:102c380001417800540d2100024a78004df0b70098
:102c48004a70ef00040037004a70ef0002003700b6
:102c58004a70ef00000037000080fa00000006000c
:102c68000800fa00004f78008e02e800d4d0bf00b8
:102c7800814a78008e82e800e6004700828abe001a
:102c8800844878005a0007001e4078005800070062
:102c98000e00e80010407800550007006600470065
:102ca800104078000004e000050032000e80e800c3
:102cb80090009000100078008c0007000300370097
:102cc8000e80e8001000780077000700d0c0b3003d
:102cd80047000700a0c0b300450007000080fa00c5
:102ce800000006000400fa00004f78008e01e8009a
:102cf800d4d0bf00814978008e80e80082487800ef
:102d08003b0007001e407800390007000e00e8006d
:102d180010407800360007000e80e8001040780068
:102d28003f000700d0c0b30031000700a0c0b300c7
:102d38002f0007000080fa00000006000000fa00db
:102d4800d4d0bf002a00070090c4b30028000700b1
:102d5800e0c4b3002600070030c0b300300007000d
:102d6800208280003182800060000700408280005d
:102d78004d0007000040eb002900070010c0b30019
:102d880027000700400b200047000700a05520003f
:102d98000100200055000700d0c0b3001400070050
:102da800a0c0b300120007000080fa00000006006f
:102db8000200fa00004f7800d4d0bf000c000700d2
:102dc80070c4b3000a00070030c5b300080007004c
:102dd8001e40780012000700d0c0b30004000700ae
:102de800a0c0b300020007000080fa00000006003f
:102df8000200fa00004f7800111180000010200036
:102e0800008060000000e000fbff32009e80fb00b5
:102e18001e407800211188000080fa00000006009a
:102e28000400fa008e80e8000e81e800004978006e
:102e3800114078000080fb004400de00004078006c
:102e480001c3b300014f400090c3b3009e40780017
:102e580080cf5000020036001e417800674f4100c5
:102e68001e407800e2ff07008e80e80090c3b300a0
:102e780091407800efc0600002c3b30002cf400069
:102e88009e40780080cf5000020036009e407800b7
:102e980067cf40001e407800d5ff07000040eb00d8
:102ea8000080fa00000006000400fa008e80e800a6
:102eb8000e81e80000097800110078004800de0063
:102ec80000407800d6ff07008e80e800004f7800a9
:102ed8001100780000407800d1ff07001e4f400025
:102ee8001e4078000080fa00000006000600fa0084
:102ef8000e81e8008e81e8008089be00120078000b
:102f0800920090004808de0000407800c4ff0700e7
:102f18008e80e800004f7800110078009100900042
:102f28004008de0000407800bdff07008e80e80002
:102f38001e4f400011007800910090004809dd0004
:102f48004800de0000007100c808de00004078007c
:102f5800b3ff07008e80e8001e4f40001100780084
:102f680000407800aeff07001e4f40001e4078006a
:102f78000080fa00000006001e00fa00889fbe00cc
:102f88008a9fbe008c9fbe0068014700e80047008a
:102f980080087800120078008004eb001040780068
:102fa8007a0107000080fb008000eb00008fbe0064
:102fb8001e0078009e0090000000780070006000fd
:102fc800000478000800be00e00f5000e08f5800b1
:102fd800020032006000b800ef00370068004700c8
:102fe8001e0178009e019000100078008000e80023
:102ff800cc11dd0002002000640047000288be00fa
:1030080011407800610107000080fb008000eb00a0
:10301800008fbe008005eb001e0078009e00900027
:103028000000780070006000000578000a00be000b
:10303800e00f5000e08f5800020032006000b80036
:10304800d5003700e8004700640047009100780089
:103058008182e80010017800900190001e0078003d
:103068009e00900064024700c800dd0000002000b8
:103078000000710081807100008abe001540780050
:10308800420107000080fb008000eb00008fbe00bb
:103098008006eb001e0078009e009000000078007b
:1030a80070006000000678000c00be00e00f5000c1
:1030b800e08f5800020032006000b800b600370008
:1030c800e80047006400470091007800e382400070
:1030d80010017800900190001e0078009e0090007a
:1030e80064024700c400dd000000200000007100f9
:1030f80081807100008abe00154078002301070016
:103108000080fb008000eb00008fbe008000eb0019
:10311800610798001e0078009e009000000078006b
:1031280070006000500798005e009000ee0090006c
:10313800e00f5000e08f5800020032006000b80035
:1031480095003700e80047006400470091007800c8
:103158006482400010017800900190001e00780001
:103168009e009000e4024700c000dd00000020003f
:103178000000710081807100808abe0014407800d0
:10318800020107000080fb008000eb00008fbe00fa
:103198000002eb00040f98001e0078009e009000cb
:1031a8000000780070006000700798007e009000b2
:1031b8008e089000e00f5000e08f580002003200a7
:1031c8006000b80074003700e8004700640047005a
:1031d800910078006583400010017800900190000c
:1031e8001e0278009e029000e40347004c28dd0090
:1031f800c420de00810070004c20dd00000071005a
:1032080081807100808bbe0016407800df000700c7
:103218000080fb008000eb00008fbe008002eb0006
:10322800250f98001e0078009e009000000078008e
:1032380070006000100f98001e089000ae08900003
:10324800e00f5000e08f5800020032006000b80024
:1032580051003700e80047006400470091007800fb
:103268006683400010017800900190001e027800eb
:103278009e029000e40347004828dd00c820de00d5
:10328800810070004820dd0000007100818071001d
:10329800808bbe0016407800bc0007000080fb0051
:1032a8008000eb00008fbe008000eb00410f98000b
:1032b8001e0078009e0090000000780070006000fa
:1032c800300f98003e089000ce089000e00f5000a4
:1032d800e08f5800020032006000b8002e0037006e
:1032e800e8004700640047009100780067834000c9
:1032f80010017800900190001e0278009e02900054
:10330800e40347004428dd00cc20de008100700083
:103318004420dd000000710081807100808bbe00b8
:1033280016407800990007000080fb008000eb0041
:10333800008fbe000002eb00640f98001e007800aa
:103348009e0090000000780070006000500f980008
:103358005e089000ee089000e00f5000e08f5800e3
:10336800020032006000b8000b003700640047001c
:10337800640147009000900010007800e4014700c5
:103388003e027000ae8270000400be008089be005c
:1033980012007800920090004f06be004f05be0054
:1033a8004f04be000080fa00000006000600fa0084
:1033b800e400470064014700000978001100780024
:1033c80010407800710007000080fb00000f7800b3
:1033d8009e007800708060000000e000020032006b
:1033e8000000eb0040003700640047009e007800b2
:1033f800100078000000e8004c09dd008e80e8002d
:103408008208780010407800600007000080fb0008
:10341800000f78009e007800708060000000e000d7
:10342800020032000000eb002f0037006400470064
:103438008e80e800100078000080e8009101780094
:103448001e0178008e80e8004811dd00030171003c
:1034580082087800104078004c0007000080fb00cc
:10346800000f78009e007800708060000000e00087
:10347800020032000000eb001b0037006400470028
:103488008e80e80010007800630040009101780009
:103498001e0178008e80e8004411dd0003017100f0
:1034a8008208780010407800380007000080fb0090
:1034b800000f78009e007800708060000000e00037
:1034c800020032000000eb00070037008e80e800a1
:1034d8000e80e800110178008e80e8001e0171005e
:1034e80082087800100078000080fa0000000600ca
:1034f8000400fa008e80e8000e81e80000097800d8
:10350800110078001040780020000700004f780074
:103518001e80fb00700060000000e0000200320026
:103528000040eb00170037000e80e8009e4078004e
:10353800100078000000e8004409dd008e00e80073
:10354800824878001040780010000700004f78008b
:103558001e80fb00700060000000e00002003200e6
:103568000040eb00070037008e00e8000e00e8007e
:10357800114178008e00e8001e41710082487800f1
:10358800104078000080fa00000006000400fa00ed
:103598000e81e8008e81e800f1c2b300804978000e
:1035a80012407800814f5000050036008e80e800f8
:1035b80060c4b3009140780080cf5000020036000c
:1035c80000c1b3000c0037000e80e8008e80e800d0
:1035d8001041780000cdb30091407800004f4100c1
:1035e80090c3b30080cf5000020036009e407800a0
:1035f80067cf50001e4078000080fa0000000600e7
:103608000400fa008e80e8000001eb0080087800d2
:10361800020f780003003700803e2000e9140700fd
:103628001e0fe8000e80e800100078009e0f500082
:10363800f9ff3e000080fa00000006000400fa00ce
:103648000e81e800004f78008e81e800e0912000ac
:103658008109780092007800808f500002003600bf
:10366800c0002000160037008e80e800303c2000a3
:1036780091007800808f500002003e00c0002000ba
:103688000f0037008e80e8001e80fb009101780053
:1036980080004000c0012100429c20008080400042
:1036a80002808800409c2000028080008308780007
:1036b800020050007675ef00308088000000eb00b3
:1036c8000080fa00000006000000fa0005e1a900e9
:1036d80021e3a90013e1a9000080fa000000060018
:1036e8000000fa000068a9000108a90001a8a900c3
:1036f80005e1a80021e3a80013e1a8000080fa0072
:10370800000006000200fa00004f78001e80fb004f
:1037180061006000004078000004e0000900320009
:10372800a081800011c0b300403cb0008141780006
:103738000203210003497800800078000040eb0074
:10374800beff07001e80fb00620060000000e00072
:1037580009003200a081800011c0b300403cb000d5
:103768008141780012032100034978008000780025
:1037780010c0b300b1ff07001e80fb0064006000aa
:103788000000e00009003200a081800011c0b300f1
:10379800403cb000814178002203210003497800b1
:1037a8008000780020c0b300a4ff07000000eb00f1
:1037b8000080fa00000006000000fa0001188000ee
:1037c800f00f2000e18a8800e18a8000808f500095
:1037d80002003600f00f2000e08a8800f08a80009e
:1037e8000418800000014000011621008001e80053
:1037f80001004100f38a880004087800f18a8000fb
:1038080000022000808f5000010036005e31ef007a
:103818000230ef005c31ef000b003700e08a8000d7
:1038280001162100000040000100400012808000c5
:10383800e18a8000100078008100e8000200400062
:10384800e18a880010808800e08a8000ff0f50001d
:10385800f2ff360011808000008d8000c508de0070
:103868000000e80011808800008d8800b18a80007f
:1038780000a62e00808f50000200360010c0b30052
:1038880058f1b70010808000e60f5000290036007c
:10389800d18a800010c0b300027d2000828f5000c2
:1038a80001003e000040eb008100e800d18a88005a
:1038b8000004e0000300320080382100148ea800c4
:1038c800d08a880010808000eb0f50000900360075
:1038d800118d800080bb20008100e800118d8800d8
:1038e800118d8000808f50000200360010c0b30098
:1038f80058f1b700018d8000803e2000808f500075
:1039080034003a00218d8000f0a52e00808f5000f1
:1039180030003e00228d800011808000b0aa2a006d
:103928000008b8004208de0002004000208d880030
:103938002800370058d1bf00728080008080fb00cb
:103948000200780000f0a7000000ea008100e9000a
:103958000000e900cf08de004f00de00814078005b
:103968000040780000c060000004e0000900320058
:10397800d08a80000000e00004003200d08a800075
:103988000000e900d08a880002003700148ea900e0
:103998005631ef00108d80000000e0000300320077
:1039a800108d80000000e900108d8800018d8000d6
:1039b800803e2000808f500006003a00208d800055
:1039c8000000e00003003200208d80000000e900c4
:1039d800208d880058d1bf000004e0001300320099
:1039e80071808000000420008100e8002230ef0090
:1039f800718088002430ef00718080002630ef004d
:103a0800008060000000e00001003200148ea80071
:103a18007180800000082000808f5000110036005f
:103a2800148ea9000e30ef000e0037007080800061
:103a38000000e0000b0032007180800000202000b0
:103a4800008060000000e00002003200148ea80030
:103a580001003700148ea900708080000000e90082
:103a680070808800018d8000803e2000808f50008b
:103a780001003a00a031ef000080fa0000000600c3
:103a88000400fa0000c0240001002000e081880042
:103a9800f1818800e1818000f0818000b613070081
:103aa800008fbe00e0818000f18180001e02780056
:103ab80062014000e08148006120b800e28188008e
:103ac800f38188002082880031828800e1818000ab
:103ad800f0818000a8130700008fbe0020828000bc
:103ae800318280001e01780064c024000500200097
:103af8008001eb00e4818800f5818800c011dd00b9
:103b080002002000e48180000000710081807100c3
:103b1800f281800020828800318288008400780049
:103b28000200780094130700008fbe00a0c0240094
:103b3800010020001e017800e0818800f1818800e2
:103b4800a2818800e1818000f08180008a1307004b
:103b5800008fbe00c0c02400010020001e017800b4
:103b6800e0818800f1818800b2818800e1818000cd
:103b7800f081800080130700008fbe00e0c02400a1
:103b8800010020001e017800e0818800f181880092
:103b9800c2818800e1818000f081800076130700ef
:103ba800008fbe0080c02400010020001e017800a4
:103bb800e0818800f1818800d2818800e18180005d
:103bc800f08180006c130700008fbe0040c0240005
:103bd800010020001e017800e0818800f181880042
:103be80002407800e181800071f5b700f081800023
:103bf80061130700008fbe001e00780000407800a7
:103c0800d4f0b7000080fa00000006000000fa00b7
:103c1800889fbe0000c0240001002000910007001a
:103c28002282800033828000f0ff2f0001002000f4
:103c38000202780083017800000178000100780012
:103c4800020162008081610000c0240001002000a0
:103c580083047800020478000801be00a900070068
:103c680020828000318280004009de0003002000ad
:103c780020c0240001002000a2000700d4d0bf000b
:103c88000081fb008001eb0040c0240001002000ff
:103c98009c00070071d5bf000081fb008001eb008c
:103ca80080c024000100200096000700a081800049
:103cb8006101b80060c024000100200091000700e5
:103cc800b08180006101b800a0c02400010020007c
:103cd8008c000700c08180006101b800c0c02400ca
:103ce8000100200087000700d08180008000eb00e1
:103cf8000001be00e0c02400010020008100070090
:103d08004f04be000080fa00000006000600fa001a
:103d1800e400470064014700e40147000009780017
:103d28006401470011007800e40047001040780063
:103d380093017800004f78000300e8001201780032
:103d4800910078008281e800e3804000104278000a
:103d58000e00e8000e81e800044878006300470080
:103d68009341780003497800914078000148780031
:103d78001e0078009e0090000080fa0000000600f7
:103d88000a00fa00889fbe00e40147006402470069
:103d980068044700008abe0068034700331f7800a4
:103da800231778008e02e800680247008e81e80039
:103db800e8004700630047009e437800e804470096
:103dc800820c7800180178000749780016017800fd
:103dd800954278000201e80005497800140178004e
:103de800934178000281e8000349780011017800c6
:103df8009040780063004100014878004f04be00fd
:103e08000080fa00000006000000fa00d00024003c
:103e180040398800c3e8a90050052000703988009f
:103e2800a00a20007039880029e7a80000000000d7
:103e38000000000041398000000028000080600078
:103e48000000e000fbff3a00c3e8a800403980000a
:103e58004d00de00614060000080fb000080fa0039
:103e6800000006000800fa006402470064014700e9
:103e78008e81e8000089be000e81e800341f7800ba
:103e8800241778000080eb009340780092017800b6
:103e98008180fb001e017800a10288009e00780046
:103ea80063398800523988008008bb00300024003c
:103eb80040398800c3e8a9005005200070398800ff
:103ec800a00a20007039880029e7a8000000000037
:103ed80000000000413980000000280000806000d8
:103ee8000000e000fbff3a00c3e8a800403980006a
:103ef8004d00de00614060000080fb000080fa0099
:103f0800000006001000fa00881f780068034700c8
:103f180068044700ec034700008cbe008e80e80070
:103f2800361f780026177800680047006c044700a1
:103f380064034700028cbe0012002400910178003f
:103f4800423988009e00780063398800a20f20005b
:103f58005139880090009000100078008002eb0032
:103f680000007800371b7800271378006300600092
:103f7800a2028800000278000400be00e00f500092
:103f8800e08f58000f0032000000eb008080eb004b
:103f98000108bb0010002000f10f20000188bb00c1
:103fa800e400470020002000910078000108bb00d1
:103fb800e600470030002000910078000188bb002f
:103fc8000e003700e40047000000eb009100780085
:103fd8000108bb00e60047001000200091007800af
:103fe8000188bb00200020008080eb000108bb0096
:103ff80030002000f10f20000188bb00c3e8a900b1
:104008005005200070398800a00a20007039880007
:1040180029e7a800000000000000000041398000e6
:1040280000002800008060000000e000fbff3a006c
:10403800c3e8a800403980004d00de006140600000
:104048000080fb004f0478000080fa0000000600a2
:104058000200fa00000f780000f82f0022368000d6
:104068002102200000016100f00f2c008280700006
:104078002136880001348000008060000080a000a4
:10408800003488002022ef009e007800411188004b
:104098002222ef0021e2a8002342a8000168a9001b
:1040a8002168a8000080fa00000006000200fa005b
:1040b80030118000004f78000168a9001e80fb00c5
:1040c8004191800010828800f0072000808f500006
:1040d8000e003c0050918000811a21000001e80088
:1040e80001004000529188001e48780051918000dc
:1040f80000082000808f500001003a002a32ef00ab
:10410800409180000000e800409188000080fa009b
:10411800000006000200fa002168a9004091800012
:104128000000e00003003a000080eb00000f780078
:104138001000370060918000811a21008100400042
:104148000001e80011407800629188000080fb00bf
:1041580061918000000f780000082000808f5000d7
:1041680001003a002c32ef00409180000000e90085
:10417800409188001e0078002168a8000080fa009d
:10418800000006000000fa00709580000000e000c2
:1041980002003c002188a90011003700909580009a
:1041a800e1222100810040000188a90091407800a7
:1041b8000001e8000100fb009295880020118800aa
:1041c8009195800000082000808f500001003a007f
:1041d800b232ef00709580000000e9007095880009
:1041e8000080fa00000006000200fa00004f780084
:1041f8000000370071958000f0072000808f500084
:10420800fcff3c0080958000e12221000001e800cd
:1042180001004000829588002188a9001e48780086
:104228008195800000082000808f500001003a002e
:10423800b032ef00709580002188a8000000e800e7
:10424800709588000080fa00000006000200fa005d
:10425800000f780000f82f0032368000510220004d
:104268000001610000fc2f00828070003136880058
:1042780021348000008060003000b30020348800c2
:104288003022ef009e007800c11188003222ef0032
:1042980031e2a8003342a80003c8a90023c8a80037
:1042a8000080fa00000006000200fa00b011800049
:1042b800a1998000004f780003c8a900f0072000ea
:1042c800808f50000f003c00b09980009e4078001d
:1042d800422b21008001e80002004000b3998800c9
:1042e80001487800b199800000082000808f5000b4
:1042f80001003a003633ef00a09980000000e80082
:10430800a09988000080fa00000006000200fa0068
:1043180023c8a900a09980000000e00003003a002b
:104328000080eb00000f780010003700c099800073
:10433800412b2100810040000001e8001140780075
:10434800c29988000080fb00c1998000000f7800a6
:1043580000082000808f500001003a003833ef0039
:10436800a09980000000e900a09988001e0078004c
:1043780023c8a8000080fa00000006000000fa0028
:10438800d09d80000000e00002003c0023e8a90066
:1043980010003700f09d8000a1332100810040000b
:1043a8000001e80011407800f29d88000000fb0041
:1043b800f19d8000a011880000082000808f500027
:1043c80001003a00be33ef00d09d80000000e900f4
:1043d800d09d880003e8a9000080fa0000000600cc
:1043e8000200fa00004f780000003700d19d8000dd
:1043f800f0072000808f5000fcff3c00e09d80000b
:10440800a13321000001e80001004000e29d88007e
:1044180023e8a9001e487800e19d800000082000dc
:10442800808f500001003a00bc33ef00d09d80001f
:1044380023e8a8000000e800d09d88000080fa006a
:10444800000006000000fa00300020004122200091
:104458000070880010002000817088006100200032
:1044680070708800422220001e2eef0000fe2f00f0
:1044780051708800f1f32f00d270880006e02f00f9
:10448800223a8000a504200000006100f48f2f006c
:10449800203a88000000eb00223a8000e3c12000a7
:1044a8000101610011322400223a8800d2bc2a009e
:1044b800373a80000683630086827200353a8800a6
:1044c800253a800004826200243a88008209780034
:1044d80081097800206188000000eb00e3c120001a
:1044e80011322400d2bc2a008209780081097800a0
:1044f800206288000000eb00e3c120001132240094
:10450800d2bc2a00820978008109780020638800db
:1045180000002500e3c1200011322400d2bc2a008b
:104528008209780081097800106188000000250060
:10453800e3c1200011322400d2bc2a00820978008d
:10454800810978001062880000002500e3c120007e
:1045580011322400d2bc2a0082097800810978002f
:104568001063880011e1a900f0ff280011428000c3
:104578000200280080806000f0fc2f008101780094
:1045880003c0a0009111210013428800820888000e
:1045980000e8a90020e8a800820880000000610067
:1045a8000040a00080088800610888000080fa00a8
:1045b800000006000200fa0044d5bf00e14f500099
:1045c8001f003a0000c1b3002600370030aa80005f
:1045d8001e017800414c2100024178008100400012
:1045e8000000e8008248780030aa880030aa8000dd
:1045f800e60f50000a003a00c8d4bf000004e000eb
:1046080005003d00c6d4bf000000fb006600400066
:1046180040aa8800020037006000200040aa8800f5
:1046280031aa800040aa8000808f500004003a0020
:1046380010c0b3004635ef0044f5b700000037005e
:1046480044d5bf00e14f500005003200b1fe07001d
:10465800000f78001e007800e10f4000dbff3a00f1
:1046680040c0b3000080fa00000006000400fa0011
:104678008e80e8000e81e8000009780011007800bb
:1046880064004000104078000004e00007003d008e
:104698000e80e800100078000080e80010407800e4
:1046a8000000fb00660040000100370060002000a9
:1046b800000f7800090037008e80e8000e80e800bf
:1046c8001101780090007800124078000101e8009c
:1046d8008e80e80082087800c3fe07001e0078007c
:1046e8001e0fe90000f0a7000000ea000000ea0041
:1046f8004f00de00004078000004e000eeff3a00c2
:084708000080fa000000060029
:020000040000fa
:108850000000fa0002198000f1cf2f00f0f12f0084
:108860008100610032f82f0001198800f1c3b300c4
:108870000319800095112100008061000400280088
:10888000800178000360a000f0fc2f00031988002d
:10889000130020002043a8002343a80025e3a900db
:1088a00016198000020163000220a000121988003e
:1088b000014378004232200006497800750888009c
:1088c0009408880091088000008060000040a000ab
:1088d000900888000108a9002108a90083198800d0
:1088e00001a8a90021a8a80021e3a80013e1a8007d
:0888f0000080fa000000060000
:020000040000fa
:108a3800c414000086000000800000004a150000f1
:108a4800420000008200000061310400613204002d
:108a5800613304007231040072320400723304007e
:108a6800686f0100736f0800736a0800737602006c
:108a780063610100676101006e761e00640a0000f0
:108a880000000300440400000001500064040000da
:108a98000001500066040000000150000000800042
:108aa80000100000a801000080000000a8110000cc
:108ab8000c01000080000000b41200000c0100004e
:108ac80080000000c01300000401000080000000c6
:048ad800000000009a
:020000040000fa
:10893800a002880081007800000006004039880005
:108948005005200070398800a00a2000703988007e
:1089580029e7a800000000000000000029e7af0098
:10896800feff370000000600a00288008308bb0055
:108978008288bb0000000600a00288001100ba002f
:108988009180ba00000006005400f80042398800bf
:10899800a00288008108bb005005200070398800bb
:1089a800a00a20007039880029e7a800000000000c
:1089b8000000000029e7af00feff37005400f9006f
:1089c80000000600818b28000008b800823e2000c5
:1089d800110009004288d8002002b1000080090077
:1089e8000000000000000600005004000000000025
:00000001FF
